{
  "_format": "hh-sol-artifact-1",
  "contractName": "CertificateNFT",
  "sourceName": "contracts/CertificateNFT.sol",
  "abi": [
    {
      "inputs": [],
      "stateMutability": "nonpayable",
      "type": "constructor"
    },
    {
      "anonymous": false,
      "inputs": [
        {
          "indexed": true,
          "internalType": "bytes32",
          "name": "certId",
          "type": "bytes32"
        },
        {
          "indexed": false,
          "internalType": "string",
          "name": "studentName",
          "type": "string"
        },
        {
          "indexed": true,
          "internalType": "address",
          "name": "issuer",
          "type": "address"
        },
        {
          "indexed": false,
          "internalType": "uint256",
          "name": "timestamp",
          "type": "uint256"
        }
      ],
      "name": "CertificateIssued",
      "type": "event"
    },
    {
      "anonymous": false,
      "inputs": [
        {
          "indexed": true,
          "internalType": "bytes32",
          "name": "certId",
          "type": "bytes32"
        },
        {
          "indexed": true,
          "internalType": "address",
          "name": "issuer",
          "type": "address"
        },
        {
          "indexed": false,
          "internalType": "uint256",
          "name": "timestamp",
          "type": "uint256"
        }
      ],
      "name": "CertificateRevoked",
      "type": "event"
    },
    {
      "anonymous": false,
      "inputs": [
        {
          "indexed": true,
          "internalType": "address",
          "name": "issuer",
          "type": "address"
        },
        {
          "indexed": true,
          "internalType": "address",
          "name": "addedBy",
          "type": "address"
        }
      ],
      "name": "IssuerAdded",
      "type": "event"
    },
    {
      "anonymous": false,
      "inputs": [
        {
          "indexed": true,
          "internalType": "address",
          "name": "issuer",
          "type": "address"
        },
        {
          "indexed": true,
          "internalType": "address",
          "name": "removedBy",
          "type": "address"
        }
      ],
      "name": "IssuerRemoved",
      "type": "event"
    },
    {
      "inputs": [
        {
          "internalType": "address",
          "name": "_newIssuer",
          "type": "address"
        }
      ],
      "name": "addIssuer",
      "outputs": [],
      "stateMutability": "nonpayable",
      "type": "function"
    },
    {
      "inputs": [
        {
          "internalType": "bytes32",
          "name": "certId",
          "type": "bytes32"
        }
      ],
      "name": "certificateExists",
      "outputs": [
        {
          "internalType": "bool",
          "name": "",
          "type": "bool"
        }
      ],
      "stateMutability": "view",
      "type": "function"
    },
    {
      "inputs": [],
      "name": "getAllCertificateIds",
      "outputs": [
        {
          "internalType": "bytes32[]",
          "name": "",
          "type": "bytes32[]"
        }
      ],
      "stateMutability": "view",
      "type": "function"
    },
    {
      "inputs": [
        {
          "internalType": "bytes32",
          "name": "certId",
          "type": "bytes32"
        }
      ],
      "name": "getCertificate",
      "outputs": [
        {
          "internalType": "string",
          "name": "studentName",
          "type": "string"
        },
        {
          "internalType": "string",
          "name": "courseName",
          "type": "string"
        },
        {
          "internalType": "string",
          "name": "ipfsCID",
          "type": "string"
        },
        {
          "internalType": "uint256",
          "name": "issueDate",
          "type": "uint256"
        },
        {
          "internalType": "bool",
          "name": "isValid",
          "type": "bool"
        },
        {
          "internalType": "address",
          "name": "issuer",
          "type": "address"
        }
      ],
      "stateMutability": "view",
      "type": "function"
    },
    {
      "inputs": [],
      "name": "getTotalCertificates",
      "outputs": [
        {
          "internalType": "uint256",
          "name": "",
          "type": "uint256"
        }
      ],
      "stateMutability": "view",
      "type": "function"
    },
    {
      "inputs": [
        {
          "internalType": "address",
          "name": "",
          "type": "address"
        }
      ],
      "name": "isIssuer",
      "outputs": [
        {
          "internalType": "bool",
          "name": "",
          "type": "bool"
        }
      ],
      "stateMutability": "view",
      "type": "function"
    },
    {
      "inputs": [
        {
          "internalType": "bytes32",
          "name": "certId",
          "type": "bytes32"
        },
        {
          "internalType": "string",
          "name": "_studentName",
          "type": "string"
        },
        {
          "internalType": "string",
          "name": "_courseName",
          "type": "string"
        },
        {
          "internalType": "string",
          "name": "_ipfsCID",
          "type": "string"
        }
      ],
      "name": "issueCertificate",
      "outputs": [],
      "stateMutability": "nonpayable",
      "type": "function"
    },
    {
      "inputs": [],
      "name": "owner",
      "outputs": [
        {
          "internalType": "address",
          "name": "",
          "type": "address"
        }
      ],
      "stateMutability": "view",
      "type": "function"
    },
    {
      "inputs": [
        {
          "internalType": "address",
          "name": "_issuer",
          "type": "address"
        }
      ],
      "name": "removeIssuer",
      "outputs": [],
      "stateMutability": "nonpayable",
      "type": "function"
    },
    {
      "inputs": [
        {
          "internalType": "bytes32",
          "name": "certId",
          "type": "bytes32"
        }
      ],
      "name": "revokeCertificate",
      "outputs": [],
      "stateMutability": "nonpayable",
      "type": "function"
    },
    {
      "inputs": [
        {
          "internalType": "bytes32",
          "name": "certId",
          "type": "bytes32"
        }
      ],
      "name": "verifyCertificate",
      "outputs": [
        {
          "internalType": "bool",
          "name": "isValid",
          "type": "bool"
        },
        {
          "internalType": "string",
          "name": "studentName",
          "type": "string"
        },
        {
          "internalType": "string",
          "name": "courseName",
          "type": "string"
        },
        {
          "internalType": "uint256",
          "name": "issueDate",
          "type": "uint256"
        },
        {
          "internalType": "address",
          "name": "issuer",
          "type": "address"
        }
      ],
      "stateMutability": "view",
      "type": "function"
    }
  ],
  "bytecode": "0x608060405234801561001057600080fd5b50600080546001600160a01b03191633908117825581526001602081905260408220805460ff191690911790556002556112e58061004f6000396000f3fe608060405234801561001057600080fd5b50600436106100a95760003560e01c80638da5cb5b116100715780638da5cb5b146101435780638fa44e151461016e578063a246b96814610183578063b440983e14610196578063c6cbc52a146101bc578063f333fe08146101cf57600080fd5b806320694db0146100ae57806347bc7093146100c35780637843bb79146100d6578063850c1768146100ec578063877b9a6714610110575b600080fd5b6100c16100bc366004610d42565b6101f4565b005b6100c16100d1366004610d42565b61031c565b6002546040519081526020015b60405180910390f35b6100ff6100fa366004610d72565b61049c565b6040516100e3959493929190610dd1565b61013361011e366004610d42565b60016020526000908152604090205460ff1681565b60405190151581526020016100e3565b600054610156906001600160a01b031681565b6040516001600160a01b0390911681526020016100e3565b61017661062b565b6040516100e39190610e21565b6100c1610191366004610f08565b610683565b6101336101a4366004610d72565b60009081526003602081905260409091200154151590565b6100c16101ca366004610d72565b610993565b6101e26101dd366004610d72565b610b20565b6040516100e396959493929190610f9a565b6000546001600160a01b031633146102275760405162461bcd60e51b815260040161021e90610ffb565b60405180910390fd5b6001600160a01b03811661024d5760405162461bcd60e51b815260040161021e90611040565b6001600160a01b03811660009081526001602052604090205460ff16156102cb5760405162461bcd60e51b815260206004820152602c60248201527f43657274696669636174654e46543a2041646472657373207375646168206d6560448201526b373530b2349034b9b9bab2b960a11b606482015260840161021e565b6001600160a01b0381166000818152600160208190526040808320805460ff1916909217909155513392917f81f5a5da0823b41cbf403c631b7efa6c2ec9a7742d7c9cf86de6300fbaf3e00e91a350565b6000546001600160a01b031633146103465760405162461bcd60e51b815260040161021e90610ffb565b6001600160a01b03811661036c5760405162461bcd60e51b815260040161021e90611040565b6001600160a01b03811660009081526001602052604090205460ff166103e05760405162461bcd60e51b8152602060048201526024808201527f43657274696669636174654e46543a20416464726573732062756b616e20697360448201526339bab2b960e11b606482015260840161021e565b6000546001600160a01b03908116908216036104515760405162461bcd60e51b815260206004820152602a60248201527f43657274696669636174654e46543a20546964616b2062697361206d656e676860448201526930b83ab99037bbb732b960b11b606482015260840161021e565b6001600160a01b038116600081815260016020526040808220805460ff19169055513392917f8e3ebfd0cec02d186a926ba255288096c940460c4ce14f63974995c0d394b9b491a350565b600081815260036020819052604082209081015460609182918491829182036104d75760405162461bcd60e51b815260040161021e90611083565b60048101546003820154825460ff83169284926001840192909161010090046001600160a01b031690849061050b906110cd565b80601f0160208091040260200160405190810160405280929190818152602001828054610537906110cd565b80156105845780601f1061055957610100808354040283529160200191610584565b820191906000526020600020905b81548152906001019060200180831161056757829003601f168201915b50505050509350828054610597906110cd565b80601f01602080910402602001604051908101604052809291908181526020018280546105c3906110cd565b80156106105780601f106105e557610100808354040283529160200191610610565b820191906000526020600020905b8154815290600101906020018083116105f357829003601f168201915b50505050509250955095509550955095505091939590929450565b6060600480548060200260200160405190810160405280929190818152602001828054801561067957602002820191906000526020600020905b815481526020019060010190808311610665575b5050505050905090565b3360009081526001602052604090205460ff166106b25760405162461bcd60e51b815260040161021e90611107565b60008351116107165760405162461bcd60e51b815260206004820152602a60248201527f43657274696669636174654e46543a204e616d61206d616861736973776120686044820152696172757320646969736960b01b606482015260840161021e565b60008251116107785760405162461bcd60e51b815260206004820152602860248201527f43657274696669636174654e46543a204e616d612070726f6772616d20686172604482015267757320646969736960c01b606482015260840161021e565b60008151116107d55760405162461bcd60e51b8152602060048201526024808201527f43657274696669636174654e46543a20495046532043494420686172757320646044820152636969736960e01b606482015260840161021e565b60008481526003602081905260409091200154156108415760405162461bcd60e51b8152602060048201526024808201527f43657274696669636174654e46543a20536572746966696b61742073756461686044820152632061646160e01b606482015260840161021e565b6040805160c0810182528481526020808201859052818301849052426060830152600160808301523360a083015260008781526003909152919091208151819061088b90826111a6565b50602082015160018201906108a090826111a6565b50604082015160028201906108b590826111a6565b506060820151600382015560808201516004918201805460a0909401516001600160a01b031661010002610100600160a81b0319921515929092166001600160a81b03199094169390931717909155805460018101825560009182527f8a35acfbc15ff81a39ae7d344fd709f28e8600b4aa8c65c6b64bfe7fe36bd19b01859055600280549161094483611266565b9190505550336001600160a01b0316847f8f0f4c775104c2660782db3439fe57afdc4bc0bfaef04dfd574dbdba04990f5c854260405161098592919061128d565b60405180910390a350505050565b3360009081526001602052604090205460ff166109c25760405162461bcd60e51b815260040161021e90611107565b60008181526003602081905260408220908101549091036109f55760405162461bcd60e51b815260040161021e90611083565b600481015460ff16610a5b5760405162461bcd60e51b815260206004820152602960248201527f43657274696669636174654e46543a20536572746966696b61742073756461686044820152682064697265766f6b6560b81b606482015260840161021e565b600481015461010090046001600160a01b03163314610ad95760405162461bcd60e51b815260206004820152603460248201527f43657274696669636174654e46543a2048616e7961206973737565722061736c604482015273692079616e672062697361206d657265766f6b6560601b606482015260840161021e565b60048101805460ff19169055604051428152339083907f85fe6dd2dfc4757558754564c7ff020182ec3c918257c2ff3a217a63791ec24f9060200160405180910390a35050565b600081815260036020819052604082209081015460609283928392829182918203610b5d5760405162461bcd60e51b815260040161021e90611083565b60038101546004820154825483926001840192600285019260ff82169161010090046001600160a01b0316908690610b94906110cd565b80601f0160208091040260200160405190810160405280929190818152602001828054610bc0906110cd565b8015610c0d5780601f10610be257610100808354040283529160200191610c0d565b820191906000526020600020905b815481529060010190602001808311610bf057829003601f168201915b50505050509550848054610c20906110cd565b80601f0160208091040260200160405190810160405280929190818152602001828054610c4c906110cd565b8015610c995780601f10610c6e57610100808354040283529160200191610c99565b820191906000526020600020905b815481529060010190602001808311610c7c57829003601f168201915b50505050509450838054610cac906110cd565b80601f0160208091040260200160405190810160405280929190818152602001828054610cd8906110cd565b8015610d255780601f10610cfa57610100808354040283529160200191610d25565b820191906000526020600020905b815481529060010190602001808311610d0857829003601f168201915b505050505093509650965096509650965096505091939550919395565b600060208284031215610d5457600080fd5b81356001600160a01b0381168114610d6b57600080fd5b9392505050565b600060208284031215610d8457600080fd5b5035919050565b6000815180845260005b81811015610db157602081850181015186830182015201610d95565b506000602082860101526020601f19601f83011685010191505092915050565b851515815260a060208201526000610dec60a0830187610d8b565b8281036040840152610dfe8187610d8b565b606084019590955250506001600160a01b03919091166080909101529392505050565b6020808252825182820181905260009190848201906040850190845b81811015610e5957835183529284019291840191600101610e3d565b50909695505050505050565b634e487b7160e01b600052604160045260246000fd5b600082601f830112610e8c57600080fd5b813567ffffffffffffffff80821115610ea757610ea7610e65565b604051601f8301601f19908116603f01168101908282118183101715610ecf57610ecf610e65565b81604052838152866020858801011115610ee857600080fd5b836020870160208301376000602085830101528094505050505092915050565b60008060008060808587031215610f1e57600080fd5b84359350602085013567ffffffffffffffff80821115610f3d57600080fd5b610f4988838901610e7b565b94506040870135915080821115610f5f57600080fd5b610f6b88838901610e7b565b93506060870135915080821115610f8157600080fd5b50610f8e87828801610e7b565b91505092959194509250565b60c081526000610fad60c0830189610d8b565b8281036020840152610fbf8189610d8b565b90508281036040840152610fd38188610d8b565b6060840196909652505091151560808301526001600160a01b031660a0909101529392505050565b60208082526025908201527f43657274696669636174654e46543a2048616e7961206f776e65722079616e67604082015264206269736160d81b606082015260800190565b60208082526023908201527f43657274696669636174654e46543a204164647265737320746964616b2076616040820152621b1a5960ea1b606082015260800190565b6020808252602a908201527f43657274696669636174654e46543a20536572746966696b617420746964616b604082015269103234ba32b6bab5b0b760b11b606082015260800190565b600181811c908216806110e157607f821691505b60208210810361110157634e487b7160e01b600052602260045260246000fd5b50919050565b60208082526030908201527f43657274696669636174654e46543a2048616e7961206973737565722074657260408201526f6461667461722079616e67206269736160801b606082015260800190565b601f8211156111a157600081815260208120601f850160051c8101602086101561117e5750805b601f850160051c820191505b8181101561119d5782815560010161118a565b5050505b505050565b815167ffffffffffffffff8111156111c0576111c0610e65565b6111d4816111ce84546110cd565b84611157565b602080601f83116001811461120957600084156111f15750858301515b600019600386901b1c1916600185901b17855561119d565b600085815260208120601f198616915b8281101561123857888601518255948401946001909101908401611219565b50858210156112565787850151600019600388901b60f8161c191681555b5050505050600190811b01905550565b60006001820161128657634e487b7160e01b600052601160045260246000fd5b5060010190565b6040815260006112a06040830185610d8b565b9050826020830152939250505056fea2646970667358221220295124afe1a5cec22aeb5d666e4010d4f26548634808ddd3bf34dedebacc1a6864736f6c63430008140033",
  "linkReferences": {},
  "deployedLinkReferences": {}
}